:020000040800F2
:1000000000000220F5170008AD170008AF17000820
:10001000B1170008B3170008B5170008000000006A
:10002000000000000000000000000000B7170008FA
:10003000B917000800000000BB170008BD17000832
:10004000451800084518000845180008451800081C
:10005000451800084518000845180008451800080C
:1000600045180008451800084518000845180008FC
:1000700045180008451800084518000845180008EC
:100080004518000845180008451800080000000041
:1000900000000000000000000000000045180008FB
:1000A00045180008451800084518000845180008BC
:1000B00045180008451800084518000845180008AC
:1000C000451800084518000845180008451800089C
:1000D00045180008CD17000845180008000000006A
:1000E00045180008451800084518000800000000E1
:1000F000000000000000000000000000451800089B
:1001000000000000451800084518000845180008C0
:1001100000000000000000000000000000000000DF
:10012000451800084518000845180008451800083B
:10013000451800080000000000000000000000005A
:10014000000000000000000000000000451800084A
:10015000451800084518000845180008451800080B
:1001600045180008451800080000000000000000C5
:10017000000000000000000000000000000000007F
:10018000000000004518000800000000000000000A
:0801900045180008451800089D
:1001980010B5054C237833B9044B13B10448AFF3B9
:1001A80000800123237010BD0C0000200000000017
:1001B800A018000808B5034B1BB103490348AFF367
:1001C800008008BD0000000010000020A0180008F2
:1001D80053B94AB9002908BF00281CBF4FF0FF31A6
:1001E8004FF0FF3000F07AB9ADF1080C6DE904CE9C
:1001F80000F006F8DDF804E0DDE9022304B07047FA
:100208002DE9F0478C460D460446089E002B51D137
:100218008A4217466DD9B2FA82FEBEF1000F0BD0A2
:10022800CEF1200C01FA0EF520FA0CFC02FA0EF7BA
:100238004CEA050C00FA0EF44FEA174A250CBCFBF1
:10024800FAF81FFA87F90AFB18CC45EA0C4508FBAF
:1002580009F3AB420AD9ED1908F1FF3280F0238186
:10026800AB4240F22081A8F102083D44ED1AA4B245
:10027800B5FBFAF00AFB105544EA054400FB09F9FE
:10028800A14509D9E41900F1FF3380F00A81A1459D
:1002980040F2078102383C44A4EB090440EA0840D4
:1002A8000021002E61D024FA0EF40023346073601C
:1002B800BDE8F0878B4207D9002E54D0002186E88C
:1002C80021000846BDE8F087B3FA83F1002940F021
:1002D8008E80AB4202D3824200F2FA80841A65EB28
:1002E80003050120AC46002E3FD086E81010BDE87B
:1002F800F08712B90127B7FBF2F7B7FA87FEBEF10C
:10030800000F34D1EB1B3A0C1FFA87FC0121B3FB19
:10031800F2F8250C02FB183345EA03450CFB08F3F9
:10032800AB4207D9ED1908F1FF3002D2AB4200F217
:10033800D1808046ED1AA3B2B5FBF2F002FB10554E
:1003480043EA05440CFB00FCA44507D9E41900F175
:10035800FF3302D2A44500F2B8801846A4EB0C047F
:1003680040EA08409DE731463046BDE8F087CEF1C7
:10037800200405FA0EF307FA0EF720FA04F83A0CEF
:1003880025FA04F448EA0308B4FBF2F14FEA1845E9
:1003980002FB11441FFA87FC45EA044501FB0CF3F4
:1003A800AB4200FA0EF409D9ED1901F1FF3080F0E3
:1003B8008A80AB4240F2878002393D44EB1A1FFA2B
:1003C80088F5B3FBF2F002FB103345EA034500FB66
:1003D8000CF3AB4207D9ED1900F1FF386FD2AB42ED
:1003E8006DD902383D44EB1A40EA01418FE7C1F16B
:1003F800200722FA07F88B4005FA01F448EA0303BC
:1004080020FA07FE4FEA134CFD404EEA040EB5FBF6
:10041800FCF94FEA1E440CFB19551FFA83F844EA0D
:10042800054509FB08F4AC4202FA01F200FA01FAA8
:1004380008D9ED1809F1FF3043D2AC4241D9A9F1EE
:1004480002091D442D1B1FFA8EFEB5FBFCF00CFBA8
:1004580010554EEA054400FB08F8A04507D9E418F2
:1004680000F1FF3529D2A04527D902381C4440EABB
:100478000940A4EB0804A0FB02894C45C6464D463A
:1004880015D312D056B1BAEB0E0364EB050404FA87
:1004980007F7CB401F43CC40376074600021BDE8AC
:1004A800F0871846F8E69046E0E6C245EAD2B8EB8F
:1004B800020E69EB03050138E4E72846D7E7404612
:1004C80091E78146BEE7014678E702383C4445E7B4
:1004D800084608E7A8F102083D442BE7704700BF2B
:1004E80038B50E4A0E4B054618784FF47A73B3FBAD
:1004F800F0F31068B0FBF3F000F0AAF8044658B91E
:100508000F2D09D8024629464FF0FF3000F05EF85B
:10051800044B20461D6038BD012038BD080000206E
:10052800000000200400002008B50B4B1A6842F4B4
:1005380000721A601A6842F480621A601A6842F4FB
:1005480080721A60032000F02FF80020FFF7C8FF20
:1005580001F0CAF8002008BD003C0240034A044BE1
:1005680011681B780B441360704700BF34000020EB
:1005780000000020014B1868704700BF34000020BD
:1005880038B50446FFF7F6FF631C1CBF054B1B7804
:10059800054618BFE418FFF7EDFF401B8442FAD860
:1005A80038BD00BF00000020074AD36823F4E06389
:1005B8001B041B0C43F0BF63000243F4003300F438
:1005C800E0600343D360704700ED00E0174B30B59F
:1005D800DC68C4F30224C4F10703251D042B28BFDB
:1005E8000423062D4FF0010505FA03F303F1FF3349
:1005F8008CBF033C00241940A14005FA04F4013CD7
:100608002240002842EA01024FEA0212ADBF00F17F
:10061800604000F00F00064B00F56140B5BFD2B254
:10062800D2B21A5480F8002330BD00BF00ED00E0BC
:1006380014ED00E0002808DB4209012300F01F0048
:1006480003FA00F0014B43F82200704700E100E094
:100658000138B0F1807F0AD2064B074A5860F02172
:1006680082F823100020072298601A607047012042
:10067800704700BF10E000E000ED00E0704708B5EB
:10068800FFF7FCFF08BD90F83530022B03D080231C
:100698004365012070470268052380F835301368E8
:1006A80023F001031360002070470000094910B5CA
:1006B8000C6924F440740C610C6944F440740C61B6
:1006C8000C6944F001040C610260BFF36F8F436052
:1006D80010BD00BF003C0240074B1A6922F440726B
:1006E8001A611A6942F400721A611A6942F0010229
:1006F8001A610160704700BF003C0240074B1A694D
:1007080022F440721A611A6942F480721A611A69F5
:1007180042F001021A610180704700BF003C0240AC
:10072800204BDA68D00606D51F49CA6942F0100284
:10073800CA611022DA60DA68910606D51A49CA69D0
:1007480042F00802CA612022DA60164BDA685206C3
:1007580006D51549CA6942F00402CA614022DA6026
:10076800DA68100606D51049CA6942F00202CA6161
:100778008022DA600B4BDA68D10507D50A49CA69C5
:1007880042F00102CA614FF48072DA60DA689207B7
:1007980006D50549CA6942F02002CA610222DA6018
:1007A800704700BF003C024038000020064B1A6921
:1007B800002ABFBF054A5A6002F188325A60BABFA0
:1007C8001869C00F00207047003C024023016745AC
:1007D800034A136943F0004313610020704700BFC8
:1007E800003C0240F8B5124B124C00220546DA6173
:1007F800FFF7C0FE26460746E368DA030CD4E36831
:10080800DB0744BF0123E360F06810F4F97002D0FD
:10081800FFF786FF0120F8BD691CEDD00DB9032054
:10082800F8BDFFF7A7FEC01B8542E5D2F7E700BF7A
:1008380038000020003C02402DE9F041204D984648
:100848002B7E012B07460E46144635D001234CF269
:1008580050302B76FFF7C6FFB0B9CFB9194B1A69DC
:1008680022F440721A611A691A611A69E4B242F0F4
:1008780001021A6134704CF25030FFF7B3FF114A8D
:10088800136923F00103136100232B76BDE8F0817F
:10089800012F04D1A1B23046FFF730FFEBE7022F5A
:1008A80004D121463046FFF717FFE4E722464346C6
:1008B8003046FFF7FBFEDEE70220BDE8F08100BF0F
:1008C80038000020003C024039B101291CD002291F
:1008D8000CBF4FF400714FF440710D4B1A6922F4AC
:1008E80040721A611A69114319611A6922F0F802F3
:1008F8001A611A6942F0020242EAC00018611A69D4
:1009080042F480321A6170474FF48071E5E700BF06
:10091800003C02402DE9F04F85B00B68DFF88C8170
:10092800604A01934FF001090023019D09FA03F47D
:100938002540AC4240F0A6804C6824F0100C0CF125
:10094800FF36012E4FEA430E12D88768032606FAAF
:100958000EF627EA0607CE6806FA0EF63E438660CC
:100968004768C4F3001627EA05079E403E434660E1
:100978000326C76806FA0EF6F64307EA060A8F68E2
:1009880007FA0EF747EA0A07BCF1020FC76016D14B
:100998004FEAD30A00EB8A0A03F0070BDAF8207053
:1009A8004FEA8B0B4FF00F0C0CFA0BFC27EA0C0CE0
:1009B8000F6907FA0BF747EA0C07CAF820700768AF
:1009C8003E4004F0030707FA0EFE4EEA06060660EC
:1009D800E60057D54FF0000BCDF80CB0D8F84470AE
:1009E800314E47F48047C8F84470D8F8447007F48B
:1009F80080470397039F23F0030707F1804707F514
:100A08009C3703F0030CD7F808A04FEA8C0C4FF082
:100A18000F0E0EFA0CFEB0422AEA0E0E39D006F579
:100A28008066B04237D006F58066B04235D006F50C
:100A38008066B04233D006F58066B04214BF072600
:100A4800042606FA0CF646EA0E06BE601668EF4360
:100A580014F4803F0CBF3E402E431660566814F4D1
:100A6800003F0CBF3E402E435660966814F4801F2A
:100A78000CBF3E402E439660D668A40254BF3E4049
:100A88002E43D6600133102B7FF44FAF05B0BDE87D
:100A9800F08F5E46D5E70126D3E70226D1E7032685
:100AA800CFE700BF003C0140000002400038024090
:100AB8000AB1816170470904FBE7436931EA03031E
:100AC80008BF0904816170472DE9F341044608B95C
:100AD80001203FE00368DD0710D4236898075AD443
:100AE80023681A0700F19C8023685B0700F1BA802D
:100AF800A069002840F01B8100202BE0A44B9A68D5
:100B080002F00C02042A07D09A6802F00C02082AA4
:100B18000AD15B68590207D59D4B1B689A03DCD53F
:100B28006368002BD9D1D3E76368994DB3F5803F4B
:100B380013D12B6843F480332B60FFF71BFD944DD2
:100B480006462B689B03C8D4FFF714FD801B642856
:100B5800F7D9032002B0BDE8F081B3F5A02F04D186
:100B68002B6843F480232B60E3E72A6822F4803261
:100B78002A602A6822F480222A60002BDDD1FFF740
:100B8800F9FC06462B689F03A7D5FFF7F3FC801BEB
:100B98006428F7D9DDE77E4B9A6812F00C0F07D06E
:100BA8009A6802F00C02082A11D15B685E020ED422
:100BB800774B1A68950702D5E268012A88D11A6826
:100BC800216922F0F80242EAC1021A6088E7E26865
:100BD800704BB2B101221A60FFF7CCFC6C4D06468F
:100BE8002B68980707D52B68226923F0F80343EA96
:100BF800C2032B6074E7FFF7BDFC801B0228EFD906
:100C0800A7E71A60FFF7B6FC614D06462B689907FF
:100C18007FF566AFFFF7AEFC801B0228F6D998E790
:100C280062695D4B7AB101221A60FFF7A3FC584D47
:100C380006466B6F9F073FF557AFFFF79BFC801B7E
:100C48000228F6D985E71A60FFF794FC504D06464E
:100C58006B6F98077FF548AFFFF78CFC801B022865
:100C6800F6D976E74A4B1A6C12F0805228D10192D5
:100C78001A6C42F080521A641B6C03F08053019383
:100C8800019B0126454D2B68D9051BD5A368404D0E
:100C9800012B27D12B6F43F001032B67FFF76AFC69
:100CA8003B4D074641F288382B6F9B0739D5002EFC
:100CB8003FF41EAF364A136C23F08053136417E7D2
:100CC8000026DFE72B6843F480732B60FFF752FCA4
:100CD80007462B68DA05D9D4FFF74CFCC01B02285D
:100CE800F7D936E7052B04D12B6F43F004032B67A4
:100CF800D0E72A6F22F001022A672A6F22F0040245
:100D08002A67002BCAD1FFF735FC41F2883807461D
:100D18002B6F9807CBD5FFF72DFCC01B4045F7D9A3
:100D280017E7FFF727FCC01B4045BDD911E7184D51
:100D3800AB6803F00C03082B47D0194E0023022898
:100D4800336035D1FFF716FC07462B68990129D483
:100D5800226AE3691343626A43EA8213E26A43EA56
:100D68000263A26A0A4C5208013A43EA02436B60E2
:100D780001233360FFF7FEFB054623689A013FF520
:100D8800BBAEFFF7F7FB401B0228F6D9E1E600BF30
:100D98000038024000004742800E47420070004081
:100DA80060004742FFF7E6FBC01B0228CDD9D0E61A
:100DB800FFF7E0FB04462B689B017FF59DAEFFF72C
:100DC800D9FB001B0228F6D9C3E601283FF4C2AEBE
:100DD800A868E36900F480029A427FF479AE226A37
:100DE80000F03F0393427FF473AE626A47F6C07324
:100DF800034093427FF46CAEA26A00F440339342FE
:100E08007FF466AEE36A00F07060C01A18BF012074
:100E1800A0E600BF134908B58B6803F00C03042B48
:100E280003D0082B03D0104808BD104808BD4A68F5
:100E38004B68496813F4800314BF0C480A48C1F38F
:100E4800881118BF002302F03F02A1FB0001FFF741
:100E5800BFF9044B5B68C3F3014301335B00B0FB8C
:100E6800F3F008BD003802400024F40000127A00B4
:100E78002DE9F0410D46044610B90120BDE8F08186
:100E8800444B1A6802F00F028A4229D321688F075F
:100E98002ED4C80741D43F4B1A6802F00F0295427E
:100EA80067D3226851076DD4130707D53A4A2169D9
:100EB800936823F4604343EAC1039360FFF7AAFFF2
:100EC800354B364A9B68C3F30313D35CD840344B85
:100ED8001860344B1868FFF703FB0020BDE8F08169
:100EE800CAB21A701B6803F00F039942C5D1CDE747
:100EF800294B11F0040F1EBF9A6842F4E0529A6021
:100F08000E0742BF9A6842F460429A609A68A068E5
:100F180022F0F00202439A60BBE762681E4B012A86
:100F28001DD11B6813F4003FA7D01B4EB36823F0F4
:100F380003031343B360FFF71DFB41F288380746EC
:100F4800B368626803F00C03B3EB820FA3D0FFF71A
:100F580011FBC01B4045F3D90320BDE8F081911E69
:100F680001291B6802D813F0007FDDE713F0020F98
:100F7800DAE7EAB21A701B6803F00F039D427FF4A8
:100F88007CAF8EE70449E0688B6823F4E0530343A1
:100F98008B6089E7003C024000380240B81800081E
:100FA8000800002004000020044B054A9B68C3F396
:100FB8008223D35C034A1068D84070470038024047
:100FC800C818000808000020044B054A9B68C3F3B2
:100FD8004233D35C034A1068D84070470038024057
:100FE800C8180008080000200368DA6822F4907224
:100FF800DA605A6922F001025A61202380F83A30F7
:101008007047000038B50368C1681A69044622F4BD
:1010180040520A431A612569A268D968C0692A43FF
:10102800656921F416412A4321F00C0102430A4361
:10103800DA605A69A16922F440720A43B0F5004F98
:101048005A61254A29D1934203D002F5806293421E
:1010580020D1FFF7B9FF6268256892184FF00003A6
:101068004FF019015B41A0FB0101FFF7B1F86421C2
:10107800B0FBF1F401FB1403DB003233B3FBF1F3F3
:1010880003F007025B0002EB041203F4F873134445
:10109800AB6038BDFFF788FFDDE7934202D00F4A07
:1010A800934216D1FFF790FF6368256819219A00CB
:1010B800A0FB01019B0FFFF78BF86422B0FBF2F154
:1010C80002FB11031B013233B3FBF2F303EB0113F1
:1010D800DEE7FFF769FFE7E7001001400014014071
:1010E80010B5044640B390F8393003F0FF021BB93D
:1010F80080F8382000F018FB2268242384F839305F
:10110800D36823F40053D3602046FFF77BFF23689E
:101118001A6922F490421A615A6922F02A025A6125
:10112800DA6842F40052DA6000202023E06384F891
:10113800393084F83A3010BD012010BD90F83A30AB
:10114800202B20D1E9B1E2B190F83830012B1AD028
:10115800C285828500232222C36380F83A20026870
:101168008162D16880F8383041F48071D16051696A
:1011780041F001015161D16841F02001D160184668
:1011880070470120704702207047704790F83A3046
:10119800222B10B536D1836801690268B3F5805FE8
:1011A800836A23D15268E9B9C2F3080223F8022BF3
:1011B8008362C48D013CA4B2C4858CB90368DA6823
:1011C80022F02002DA60DA6822F48072DA605A6962
:1011D80022F001025A61202380F83A3000F02EFAFA
:1011E800002010BDD2B223F8012BE1E721B9591C28
:1011F800526881621A70DCE75268591C816202F0F9
:101208007F02F7E7022010BD7047000003681A68E4
:10121800D96870B5160704465D6907D196065CD58E
:101228008D065AD5BDE87040FFF7B0BF15F001052F
:1012380002D111F4907F50D0D00705D5CB0542BF1D
:10124800E36B43F00103E363560704D51DB1E36B79
:1012580043F00203E363900704D51DB1E36B43F049
:101268000403E363130706D58E0600D41DB1E36BB0
:1012780043F00803E363E36B002B66D0950604D5BF
:10128800880602D52046FFF781FF23685D69E26B77
:101298001107204602D415F040051AD0FFF7A4FE26
:1012A80023685A69520610D55A69606B22F04002C9
:1012B8005A6150B1254B0365FFF7E5F9002844D082
:1012C800606BBDE87040036D18472046FFF79CFF30
:1012D80070BDFFF799FFE56370BD160627D50D06AB
:1012E80025D594F83920212A2FD1A268B2F5805F3C
:1012F800226A17D11188C1F308015960216979B9A7
:1013080002322262E28C013A92B2E284EAB9DA68E5
:1013180022F08002DA60DA6842F04002DA6070BDDA
:101328000132EEE7511C216212785A60EAE7500652
:101338000BD54A0609D5DA6822F04002DA60202384
:1013480084F839302046FFF720FF70BD5913000894
:1013580008B5806B0023C385C384FFF755FF08BD1C
:10136800024B1870024B1960704700BF2C00002018
:1013780028000020A0F14103052B0ED8DFE803F078
:101388000B09070503100E2070470D2070470C202D
:1013980070470B2070470A2070473038C0B270473A
:1013A8000F20704770B500210646041D012514F86A
:1013B800010DFFF7DFFFA64205FB00114FEA0515F7
:1013C800F5D1084670BD00002DE9F84F0646407873
:1013D800DFF89080204FDFF888B0FFF7CBFF054695
:1013E800B078FFF7C7FF00EB0515EDB2F01C88F8E1
:1013F8000050FFF7D7FF194B1860002304463B80C5
:101408006D003988A9420BDB04F10064144E04F521
:10141800C024002598F800309D4213D3BDE8F88F0A
:1014280006EB410A9AF80900FFF7A4FF81469AF8EB
:101438000A00FFF79FFF00EB09100BF801000131CC
:101448003980DEE7725D214600230020FFF7F4F9BA
:1014580001340135DEE700BF60000020580000209D
:10146800822B0020AC0000200649074B0A681A604E
:10147800064B07481B6803600648816082F30888AA
:10148800184700BF00000608640000200400060892
:101498005C00002000ED00E001224FF400510148FB
:1014A800FFF706BB000C024010B594B030220021B3
:1014B80008A800F0E9F91422002103A800F0E4F9D3
:1014C80000241A4B01941A6C42F080521A641B6C67
:1014D80003F080530193019B154B02941A6842F460
:1014E80040421A601B680E9403F440430293029B27
:1014F8000223089301230B9308A810230C93FFF7EA
:10150800E3FA08B1FFF7C8FF0F23039300214FF454
:10151800A05303A80494059406930794FFF7A8FC26
:1015280008B1FFF7B9FF14B010BD00BF0038024082
:101538000070004000B5374A374B13601A78374BB4
:1015480089B01A70FEF7F0FFFFF7AEFF14220021F2
:1015580003A800F099F90024314B00941A6B314824
:1015680042F080021A631A6B02F080020092009A1D
:1015780001941A6B42F008021A631A6B02F008020F
:101588000192019A02941A6B42F001021A631B6BD2
:1015980003F00103224602934FF47041029BFFF7C8
:1015A80087FA4FF4704303931E480594012303A957
:1015B80004930694FFF7AEF91B481C4A84604FF465
:1015C800165380E80C000C23C460046143618461F5
:1015D800C461FFF785FD08B1FFF75EFF144B1248A1
:1015E8001988144B2B2202FB0131FFF7A7FD08B124
:1015F800FFF752FF0B4D104C4FF480512846FFF770
:101608005CFA6420FEF7BCFF2378012BF4D1FFF7C6
:101618002BFFF1E7942B002000000608680000204B
:1016280000380240000C02406C000020001001400D
:1016380030000020AD0000202D000020F8B5026821
:10164800224B9A4233D12248224903882B2707FB91
:1016580003120546D479302C0E4628D1127A302A46
:101668000DD101339BB203803A4607FB03111A4898
:10167800FFF764FDD8B1BDE8F840FFF70DBF312A88
:1016880015D11649164C0720FFF76AFEFFF78EF8AA
:1016980002210720FFF718F90023238020882B88D0
:1016A800834205D8FFF794F80E4B01221A70F8BD53
:1016B80007FB0060C379302B05D1037A302B02D1A8
:1016C8002B21FFF781FE23880133E6E70010014054
:1016D80030000020AD0000206C000020000006084B
:1016E8002E0000202D00002007B50E4B0021009190
:1016F8005A6C42F480425A645A6C02F48042009256
:10170800009A01911A6C42F080521A641B6C03F023
:10171800805301930720019BFEF746FF03B05DF855
:1017280004FB00BF0038024010B5044688B01422FC
:10173800002103A800F0A8F82268184B9A422BD180
:1017480003F59433002401945A6C154842F01002B2
:101758005A645A6C02F010020192019A02941A6BB0
:1017680042F001021A631B6B03F001030293029B10
:101778004FF4C0630393022304930323069303A93E
:1017880007230793FFF7C6F8252022462146FEF7D0
:101798001DFF2520FEF74EFF08B010BD00100140C8
:1017A800000002407047FEE7FEE7FEE7FEE77047ED
:1017B8007047704708B5FEF7D1FEBDE80840FEF750
:1017C8005EBF00000148FFF721BD00BF6C0000208C
:1017D800054BD3F8882042F47002C3F888204FF0F4
:1017E80000629A60704700BF00ED00E0DFF834D077
:1017F800002103E00C4B5B58435004310B480C4B61
:1018080042189A42F6D30B4A02E0002342F8043BFE
:10181800094B9A42F9D3FFF7DBFF00F011F8FFF705
:1018280089FE704700000220E01800080000002030
:101838000C0000200C000020982B0020FEE7000080
:1018480070B50D4E0D4CA41BA4100025A54209D15E
:101858000B4E0C4C00F020F8A41BA4100025A54248
:1018680005D170BD56F8253098470135EEE756F892
:10187800253098470135F2E7D8180008D81800082D
:10188800D8180008DC18000802440346934200D127
:10189800704703F8011BF9E7F8B500BFF8BC08BCAE
:1018A8009E467047F8B500BFF8BC08BC9E46704716
:1018B80000000000000000000102030406070809F8
:0818C80000000000010203040E
:0818D00038E9FF7F0100000070
:0418D800BD01000846
:0418DC009901000866
:0C18E00001000000100000000024F400D3
:04000005080017F5E3
:00000001FF
